:100000000C9485000C94AF000C94AF000C94AF00DE
:100010000C94AF000C94AF000C94AF000C94AF00A4
:100020000C94AF000C94AF000C94AF000C94AF0094
:100030000C94AF000C94AF000C94AF000C94AF0084
:100040000C94AF000C94AF000C94F60B0C94AF0022
:100050000C94C60E0C94FC0E0C94AF000C94AF00E4
:100060000C94AF000C94AF000C94D20A0C94AF0027
:100070000C94AF000C94AF000C94AF000C94AF0044
:100080000C94AF000C94AF000C94AF000000000281
:1000900003000A0B0000000005040908000000002E
:1000A0000000000000000000000000000102040841
:1000B0001020408001020408102040800102040842
:1000C0001020408001020408102040800202020239
:1000D00002020202040404040404040403030303EC
:1000E00003030303010101010101010100002200DA
:1000F000250028002B0000002100240027002A00F2
:10010000B100CE06F909300FBD0011241FBECFEF9C
:10011000D0E4DEBFCDBF11E0A0E0B1E0E8EAFAE252
:1001200000E00BBF02C007900D92A039B107D9F7CC
:1001300023E0A0E9B1E001C01D92AB32B207E1F7C4
:1001400010E0C4E8D0E004C02197FE010E946D12C7
:10015000C038D107C9F70E94E4110C9447150C94DC
:10016000000064E371E088EB91E00E9443106CE3CF
:1001700071E082EB91E00C94431082EB91E00E94DD
:10018000D40F88EB91E00C94D40F4F925F926F9252
:100190007F928F929F92AF92BF92CF92DF92EF9217
:1001A000FF920F931F93CF93DF93CDB7DEB7CC5061
:1001B000D4400FB6F894DEBF0FBECDBF8091910141
:1001C0008823B9F060E087E10E94650D61E083E17A
:1001D0000E94650D64E670E080E090E00E94650C8E
:1001E00060E083E10E94650D1092910181E08093AF
:1001F0009001FE0131968E010F5F1B4F7F0111921E
:100200001192E017F107D9F78091060120E4829F4F
:10021000C0011124816180937C0062E370E080E082
:1002200090E00E94650C10927B0080917A008062C1
:1002300080937A0080917A00806480937A00809124
:100240007A00846080937A0080917A008260809343
:100250007A0080917A00816080937A0080917A00A0
:10026000806180937A0080917A0084FFFCCF809136
:100270007A00806180937A00809178008093A90150
:10028000809179008093A8018091060130E4839FDA
:10029000C0011124806180937C0010927B008091CA
:1002A0007A00806280937A0080917A0080648093E3
:1002B0007A0080917A00846080937A0080917A003D
:1002C000826080937A0080917A00816080937A00C6
:1002D0008091A801E0E88E9FC00111242091A9011E
:1002E00030E035952795822B932B8F3F910511F0A8
:1002F0000CF0B5C093959093A7018093A6018091CF
:10030000A6019091A7019093AB018093AA0181E08F
:1003100085B980917A00806180937A0080917A001B
:1003200084FFFCCF8FE984B984E690E00E949E0CA4
:100330008EE984B980917A00806180937A008091FF
:100340007A0084FFFCCF8FE984B900000000000030
:10035000000000008EE984B980917A00806180936A
:100360007A0070E6872E77E6972EAA24A394B12C04
:10037000D12CC12CEFE97E2EFEE96F2E80917A0000
:1003800084FFFCCF88E190E00E949E0C74B887E067
:1003900090E00E949E0C64B880917A008061809306
:1003A0007A00209178002093A901809179008093B0
:1003B000A801F0E88F9FC001112430E03595279502
:1003C000822B932B8F3F910511F00CF04AC093952F
:1003D0009093A7018093A6018091A6019091A70117
:1003E000E091A401F091A501E817F90708F03BC0DE
:1003F0009093A5018093A4012FEFC21AD20A31E095
:10040000831A9108A108B10809F0B8CF50E040E084
:1004100062E971E08EEB91E00E94E60782E991E0EB
:100420000E9446052B013C012091070130910801F3
:10043000C9010496FC01EE0FFF1FEE0DFF1D812C7C
:10044000912C540124503F4F82179307D0F44191CF
:100450005191840E951EA11CB11C0196F5CF9A9561
:100460004ACF9A95B5CFEE0FFF1FEE0DFF1D80818D
:1004700091810196918380831092A5011092A4012D
:10048000BECF6FE871E0CE01895F9B4F0E944310A1
:100490006FE371E0CE01895F9B4F0E9494116091E0
:1004A000B0017091B1014AE0C8010E94BB10B801CF
:1004B000CE01895F9B4F0E948D11C8010E94D40F0D
:1004C00062E671E0CE01895F9B4F0E949411B301F7
:1004D000A201405853446D4678432AE0C8010E9467
:1004E000E710B801CE01895F9B4F0E948D11C801B2
:1004F0000E94D40F62E671E0CE01895F9B4F0E949B
:1005000094114AE0B601C8010E94BB10B801CE01A7
:10051000895F9B4F0E948D11C8010E94D40F62E633
:1005200071E0CE01895F9B4F0E9494112AE0B501D2
:10053000A401C8010E941411B801CE01895F9B4F2C
:100540000E948D11C8010E94D40F62E671E0CE01B5
:10055000895F9B4F0E9494116091AA017091AB0139
:100560004AE0C8010E94BB10B801CE01895F9B4FD1
:100570000E948D11C8010E94D40F62E671E0CE0185
:10058000895F9B4F0E949411809190018823A1F173
:1005900061E3CE01895F9B4F0E94A311C0900701C8
:1005A000D0900801C601880F991FE80EF91E8091AE
:1005B00007019091080184509F4FC816D90620F575
:1005C00062E671E0CE01895F9B4F0E949411F701B2
:1005D000619171917F014AE0C8010E94BB10B8018E
:1005E000CE01895F9B4F0E948D11C8010E94D40FDC
:1005F000FFEFCF1ADF0ADBCF67E471E0CE01895F3E
:100600009B4F0E949411CACF8091B0019091B1018B
:1006100001969093B1018093B00111E08AE892E0D5
:100620000E94930D892B59F08AE892E00E94AD0D4B
:100630008237A1F71093910110929001EFCF809132
:1006400090018823A1F060E083E10E94650D61E0E4
:1006500087E10E94650D64E670E080E090E00E9412
:10066000650C60E087E10E94650D10929001BE016B
:10067000695F7B4F8AE892E00E94AB0FCE01895FF1
:100680009B4F0E94D40FC45FDB4F0FB6F894DEBFC0
:100690000FBECDBFDF91CF911F910F91FF90EF90D3
:1006A000DF90CF90BF90AF909F908F907F906F9092
:1006B0005F904F9008950F931F93CF93DF93CDB723
:1006C000DEB762970FB6F894DEBF0FBECDBF26E04F
:1006D00040E855E260E070E08AE892E00E94640E33
:1006E00069E471E08AE892E00E94BD0F8091060102
:1006F00020E4829FC0011124806180937C001092CD
:100700007B0080917A00806280937A0080917A00E9
:10071000806480937A0080917A00846080937A006C
:1007200080917A00826080937A0080917A00816063
:1007300080937A0061E080E00E94290D8EE984B9FF
:1007400015B88CEF81B912B89CEE97B918B88AB970
:100750001BB861E083E10E94290D61E087E10E94FE
:10076000290D60E083E10E94650D61E087E10E9450
:10077000650D64E670E080E090E00E94650C60E04A
:1007800087E10E94650D60E080E00E94650D40EA0F
:1007900056E861E070E081EC91E00E945E0962E55C
:1007A00071E08AE892E00E94BD0F4AE063E071E0E8
:1007B000CE0101960E948F106BE571E0CE01079685
:1007C0000E94431062EB71E0CE0107960E94B611C1
:1007D00062E671E00E94C911BE016F5F7F4F0E9407
:1007E000B61162E671E00E94C91168EB71E00E94E7
:1007F000B61162E671E00E94C911BC01CE010D96EE
:100800000E945811CE0107960E94D40FCE01019686
:100810000E94D40F68E570E081EC91E00E947B09B2
:1008200068E081EC91E00E94020960E081EC91E0D7
:100830000E94020981EC91E00E94F60940E168E51E
:1008400081EC91E00E94F30910E181EC91E00E94BB
:10085000DF08082F803130F467E471E0CE010D9697
:100860000E94941140E1602FCE0101960E94621017
:10087000BE016F5F7F4FCE010D960E948D11CE019C
:1008800001960E94D40F8091AC019091AD01A0918E
:10089000AE01B091AF01800F911DA11DB11D8093DC
:1008A000AC019093AD01A093AE01B093AF01115094
:1008B00061F6BE01635F7F4F8AE892E00E94AB0F52
:1008C0008091060120E4829FC00111248161809300
:1008D0007C0068EC70E080E090E00E94650C109273
:1008E0007B0080917A00806280937A0080917A0008
:1008F000806480937A0080917A00846080937A008B
:1009000080917A00826080937A0080917A00816081
:1009100080937A0080917A00806180937A00809140
:100920007A0084FFFCCF80917A00806180937A0006
:10093000809178008093A901809179008093A8012B
:100940008091060120E4829FC00111248061809380
:100950007C0010927B0080917A00806280937A0004
:1009600080917A00806480937A0080917A0084601C
:1009700080937A0080917A00826080937A008091DF
:100980007A00816080937A008091A80120E8829F9C
:10099000C00111242091A90130E035952795822BC3
:1009A000932B8F3F910509F00CF593959093A70138
:1009B0008093A60126E044E651E067E671E08EEB05
:1009C00091E00E94FD068EEB91E00E94EF06CE01C1
:1009D0000D960E94D40F62960FB6F894DEBF0FBE3C
:1009E000CDBFDF91CF911F910F9108959A95DECFE2
:1009F000CF93DF93CDB7DEB72D970FB6F894DEBF58
:100A00000FBECDBF2DE0E9E0F1E0DE0111960190CF
:100A10000D922A95E1F7623021F483709927892B92
:100A200081F0E1E0F0E0EC0FFD1FE60FF11D8081A9
:100A30002D960FB6F894DEBF0FBECDBFDF91CF91DC
:100A400008958DE1F5CFDF92EF92FF920F931F9300
:100A5000CF93DF937C01D62E142F61E0D0E0C0E06D
:100A60006D1548F401E0060FC7010E94F804C80F95
:100A7000D11D602FF5CFCE01810F911DDF91CF9158
:100A80001F910F91FF90EF90DF9008957F928F92CA
:100A90009F92AF92BF92CF92DF92EF92FF920F930D
:100AA0001F93CF93DF93EC01888199816CE370E011
:100AB0000E9418122A813B81620F731F7B836A8315
:100AC00097FD33C0998388838A819B816CE370E0B2
:100AD0000E9418122C813D81620F731F7D836C83ED
:100AE00097FD2BC09B838A838C819D8168E170E098
:100AF0000E9418122E813F81620F731F7F836E83C5
:100B000097FD23C09D838C83888599850C9740F43D
:100B10008E819F813BE0A32EB12C18161906FCF0A4
:100B2000CC24CA94DC2C7601D4C0CC9699838883DB
:100B3000615071097B836A83C7CFCC969B838A837C
:100B4000615071097D836C83CFCF48969D838C83E0
:100B5000615071097F836E83D7CFD986C886C884D8
:100B6000D984772473947C0C0A851B85480184E919
:100B7000881A88EF980A672DC4010E94F804EE8055
:100B8000FF8090E08E159F0594F4E81AF90AFF8221
:100B9000EE828FEFC81AD80A8CE0C816D104E9F6A5
:100BA000198618860F5F1F4F1B870A87D8CF1E1420
:100BB0001F04DCF081E0C81AD10880F0D986C8860D
:100BC00068856F5F8A859B858459984F0E94F804D9
:100BD0008E0D9F2D911D9F838E83C1CFB986A886D0
:100BE000015011091B870A87EBCF4E2D672DC401D9
:100BF0000E942305FC013197FF87EE8706548DE69E
:100C000091E0089F9001099F300D1124032E000CE4
:100C1000440B550B802F86958695280F311D411D5D
:100C2000511D60E871E581E090E00E94F4110370CD
:100C3000C12CD12C7601033039F420E8C22E21E5F5
:100C4000D22EEE24E394F12CC60ED71EE81EF91E18
:100C5000DF0120E831E541E050E00E948812C60E35
:100C6000D71EE81EF91EAC81BD8120E13EE00E9446
:100C70007612C60ED71EE81EF91E2A813B814CE370
:100C8000429FC001439F900D1124C80ED91EE11C44
:100C9000F11C88819981092E000CAA0BBB0BC80E90
:100CA000D91EEA1EFB1EC701B60120E831E541E06E
:100CB00050E00E944E12CA01B9016C5F7F4F8F4F06
:100CC0009F4F27E030E040E050E00E942C127D87EB
:100CD0006C87C701B601DF91CF911F910F91FF90F3
:100CE000EF90DF90CF90BF90AF909F908F907F90CC
:100CF0000895982F92959F708F702AE0929F800D93
:100D000011240895CF93DF93CDB7DEB76E970FB65A
:100D1000F894DEBF0FBECDBF9C018FE0E6E1F1E0AD
:100D2000DE01509601900D928A95E1F78FE0E5E2A1
:100D3000F1E0DE01119601900D928A95E1F7F9013B
:100D4000A181B28195E09A9FF0019B9FF00D112443
:100D5000A1E0B0E0AC0FBD1FEA0FFB1FE60FF71FCD
:100D60008081FA018083D90111962D913C91929F47
:100D7000F001939FF00D112481E090E08C0F9D1FF6
:100D8000E80FF91FE60FF71F87856E960FB6F894E8
:100D9000DEBF0FBECDBFDF91CF910895EEEBF1E046
:100DA00088E68083128211820895CF93DF93D62F35
:100DB000C42FFC01608181EC91E00E9471096D2FCC
:100DC00081EC91E00E9402096C2F81EC91E00E947D
:100DD000020981EC91E0DF91CF910C94F609FC01BE
:100DE000218132812230310531F44CE26FE20E94E0
:100DF000D50681E0089580E008958F929F92AF928A
:100E0000BF92CF92DF92EF92FF920F931F93CF93F7
:100E1000DF934C017B018A01C22ED12CD0E0C0E0CF
:100E2000CC15DD05E9F15801F801608181EC91E014
:100E30000E94710960E081EC91E00E94020981EC5E
:100E400091E00E94F60941E0F80161918F0181EC87
:100E500091E00E94F30981EC91E00E94D8089E0184
:100E60002F5F3F4F892BD1F0CC0FDD1FCE0DDF1D43
:100E700088819981F5012081F40120839283818307
:100E800081E0DF91CF911F910F91FF90EF90DF9064
:100E9000CF90BF90AF909F908F900895E901C0CF01
:100EA00080E0EFCF1F93CF93DF93EC01162F688183
:100EB00081EC91E00E947109612F81EC91E00E9428
:100EC000020981EC91E00E94F60941E0688181EC21
:100ED00091E00E94F30981EC91E00E94DF08C82FA5
:100EE00081EC91E00E94F6098C2FDF91CF911F9148
:100EF0000895EF92FF920F931F93CF93DF938C018E
:100F0000EB01E42EF22EFC01608181EC91E00E9465
:100F100071096E2D81EC91E00E94020981EC91E053
:100F20000E94F6094F2DF801608181EC91E00E944A
:100F3000F3091982188281EC91E00E94DF088F7713
:100F40000E94790690E09B838A8381EC91E00E9465
:100F5000DF088F730E94790690E09D838C831D8645
:100F60001C8681EC91E00E94DF088F730E94790655
:100F700090E09F838E8381EC91E00E94DF088C01DA
:100F80008F710E9479068150990B9987888785E037
:100F9000159507958A95E1F70770112701501109FA
:100FA0001D870C8786E490E09B878A878FEF9FEFF1
:100FB0009F878E8781EC91E00E94F60981E0DF91A6
:100FC000CF911F910F91FF90EF9008955F926F92D4
:100FD0007F928F929F92AF92BF92CF92DF92EF92C9
:100FE000FF920F931F93CF93DF931F92CDB7DEB77E
:100FF0007C018B016A011982AE014F5F5F4FB60120
:101000000E948206582E298180E0222371F0F70188
:10101000818192810197D1F4C60103970297B0F4C0
:10102000452DB801C7010E9479070F90DF91CF913C
:101030001F910F91FF90EF90DF90CF90BF90AF90F6
:101040009F908F907F906F905F90089586E4882E98
:10105000912C66246A94762CF701608181EC91E0F2
:101060000E947109652D81EC91E00E94020981ECDA
:1010700091E00E94F6094981F701608181EC91E0DD
:101080000E94F30981EC91E00E94DF088F770E94B3
:10109000790690E0F8019183808381EC91E00E94D1
:1010A000DF088F770E94790690E0F80193838283AE
:1010B00081EC91E00E94DF08B82E86FF4CC08F7152
:1010C0000E94790690E0B5FC44C0F80195838483C2
:1010D000F70181819281029709F042C081EC91E091
:1010E0000E94DF088F730E94790690E0F8019783D1
:1010F000868381EC91E00E94DF0887709927F801D0
:101100009587848781EC91E00E94DF088F710E94AF
:1011100079068150990BF801918780878981873002
:10112000A8F181EC91E00E94DF080E94790690E02E
:101130008C599F4FF80193878287F80177866686DE
:1011400081EC91E00E94F609C114D10411F181E013
:101150006CCF0C96BACF8F730E94790690E0B5CF12
:1011600081EC91E00E94DF08877099270197F801D0
:101170009587848781EC91E00E94DF088F730E943D
:10118000790690E0F80197838683BCCF93868286A8
:10119000D4CFF801A080B180652DC7010E9452070D
:1011A0008F770E9479068A151B0409F055CFCFCF9F
:1011B0008091F1019091F201891B990B0895909112
:1011C000F2018091F1012FEF3FEF981748F4E92FDA
:1011D000F0E0ED50FE4F208130E09F5F9093F201F0
:1011E000C9010895E091F2018091F101E81730F40E
:1011F000F0E0ED50FE4F808190E008958FEF9FEF7B
:1012000008950895CF93DF931F92CDB7DEB769831A
:101210002091CD012223F9F02091CE01203258F007
:1012200021E030E0FC013383228390E080E00F90E6
:10123000DF91CF9108958091CF01E82FF0E0E05346
:10124000FE4F998190838F5F8093CF018093CE0171
:1012500081E090E0ECCF61E0CE0101960E94A90A06
:10126000F7CFCF92DF92EF92FF920F931F93CF931E
:10127000DF937C01CB018A012091CD01222389F0EB
:10128000EB016B01C40ED51ECC15DD0569F069912B
:10129000D701ED91FC910190F081E02DC7010995F6
:1012A000F3CF642F0E94A90AC801DF91CF911F914B
:1012B0000F91FF90EF90DF90CF9008959A01AB01CE
:1012C00060E074E284EF90E00E942C12205131091A
:1012D0004109510956954795379527952093B800B0
:1012E000089581E08093CD016093F0011092CF01C9
:1012F0001092CE0108950C9471090F93062F21E0EE
:101300004091CE0160ED71E08091F0010E94520A9F
:101310001092CF011092CE011092CD010F9108953D
:101320004F925F926F927F92AF92BF92CF92EF9265
:10133000FF920F931F93CF93DF935C01F62ED42F70
:1013400028013901EE2019F10E947109CE2DC43017
:1013500008F0C3E0C150B8F028E0C29FC0011124DA
:10136000A301920104C056954795379527958A9514
:10137000D2F7B901D501ED91FC910190F081E02DFA
:10138000C5010995E7CF60E0C5010E947D094D2F99
:10139000D13208F040E22C2D63EF71E08F2D0E94D6
:1013A0000A0A1092F2018093F101DF91CF911F910F
:1013B0000F91FF90EF90CF90BF90AF907F906F9084
:1013C0005F904F900895CF92EF920F931F93C22E8C
:1013D000E12C00E010E098010E9490091F910F910C
:1013E000EF90CF90089521E00C94E30961E00C9414
:1013F0007D09E1ECF1E01382128288EE93E0A0E037
:10140000B0E084839583A683B78381E791E09183DD
:1014100080830895413208F043C090918002911179
:10142000FCCF91E09093800220937E022FEF2093D7
:10143000130210925802240F2093570290937F02B8
:1014400090917F02880F892B80937F0280917D028B
:10145000813009F510927D0280917F028093BB005C
:101460008091BC0083FDF8CF85EC8093BC00809117
:1014700080028130E1F380915802841710F440918A
:101480005802A9E5B2E0962FFB018E2F891B841725
:1014900020F0842F089585EEE8CF8D918193F5CFCC
:1014A00040E0F7CF0F93413208F04BC0909180029B
:1014B0009111FCCF92E09093800200937E029FEF07
:1014C000909313021092580240935702362FA9E5C9
:1014D000B2E0FB019E2F931B941770F110927F02D4
:1014E00090917F02880F892B80937F0280917D02EB
:1014F000813029F510927D0280917F028093BB009C
:101500008091BC0083FDF8CF85EC8093BC00222342
:1015100021F0809180028230D1F3809113028F3FBD
:1015200091F080911302803281F080911302803318
:1015300071F084E00F91089591919D93CBCF85EE4A
:10154000E4CF81E0F7CF80E0F5CF82E0F3CF83E016
:10155000F1CF613298F420918002243089F46093B5
:101560003502282FA7E3B2E0FC018E2F821B8617DD
:1015700010F080E0089581918D93F7CF81E0089578
:1015800082E0089585ED8093BC008091BC0084FDCD
:10159000FCCF10928002089585EC8093BC001092DD
:1015A000800208951F920F920FB60F9211240BB66E
:1015B0000F922F933F934F935F936F937F938F93EC
:1015C0009F93AF93BF93EF93FF938091B900887F70
:1015D000803609F44EC008F041C0883209F4AAC030
:1015E00028F5803109F49EC0C8F4882309F4FBC0B3
:1015F000883009F497C0FF91EF91BF91AF919F910F
:101600008F917F916F915F914F913F912F910F90AB
:101610000BBE0F900FBE0F901F901895883109F4E4
:1016200089C0803241F78093130215C0803409F4D9
:101630009EC048F48033B9F38833E9F680931302EF
:101640000E94CC0AD8CF803509F485C0883509F4CA
:1016500096C0883481F60E94C20ACDCF883909F439
:101660008CC038F5883729F050F4883611F080376F
:1016700011F683E0809380021092140257C08838DC
:1016800009F47BC0803919F0803809F0B4CF80911B
:101690001402803208F071C0E091140281E08E0FD4
:1016A000809314028091BB00F0E0EB5EFD4F8083DD
:1016B0003DC0803B39F0E0F4803A09F479C0883AC3
:1016C00009F099CF84E08093800210923602109244
:1016D0003502E0917B02F0917C0209958091350200
:1016E00081110FC081E0809335021092370209C04A
:1016F000803C09F476C0883C09F473C0883B09F04B
:101700007ACFE091360281E08E0F80933602F0E0CE
:10171000E95CFD4F80818093BB00909136028091FF
:10172000350229C080917F028093BB0085EC8093B5
:10173000BC0061CF9091580280915702981758F5DC
:10174000E091580281E08E0F80935802F0E0E75A52
:10175000FD4F8081E9CFE091580281E08E0F8093A8
:1017600058028091BB00F0E0E75AFD4F80839091D2
:101770005802809157029817C8F285E8D8CFE091B7
:10178000580281E08E0F809358028091BB00F0E0F8
:10179000E75AFD4F808380917E0281115CCF81E00A
:1017A00080937D0284EA8093BC001092800223CF54
:1017B0000E94CC0A80911402803230F4E09114022D
:1017C000F0E0EB5EFD4F10826091140270E0E0915A
:1017D0007902F0917A0285E192E009951092140263
:1017E0000ACF85ECE0CF1092130235CF1F920F92F3
:1017F0000FB60F9211242F933F938F939F93AF9324
:10180000BF938091820290918302A0918402B09153
:1018100085023091810223E0230F2D3758F5019680
:10182000A11DB11D209381028093820290938302B7
:10183000A0938402B09385028091860290918702E2
:10184000A0918802B09189020196A11DB11D8093DB
:10185000860290938702A0938802B0938902BF9179
:10186000AF919F918F913F912F910F900FBE0F904D
:101870001F90189526E8230F0296A11DB11DD2CF07
:101880003FB7F8948091860290918702A0918802D8
:10189000B091890226B5A89B05C02F3F19F001968B
:1018A000A11DB11D3FBFBA2FA92F982F8827BC01BA
:1018B000CD01620F711D811D911D42E0660F771FE2
:1018C000881F991F4A95D1F708958F929F92AF92E2
:1018D000BF92CF92DF92EF92FF926B017C010E9448
:1018E000400C4B015C01C114D104E104F104E9F0A6
:1018F0000E94F3110E94400C681979098A099B091A
:10190000683E73408105910570F321E0C21AD10849
:10191000E108F10888EE880E83E0981EA11CB11C36
:10192000C114D104E104F10429F7FF90EF90DF9096
:10193000CF90BF90AF909F908F9008958230910587
:1019400038F0880F991F880F991F05970197F1F7B5
:101950000895789484B5826084BD84B5816084BD27
:1019600085B5826085BD85B5816085BDEEE6F0E018
:10197000808181608083E1E8F0E010828081826074
:101980008083808181608083E0E8F0E080818160F5
:101990008083E1EBF0E0808184608083E0EBF0E025
:1019A000808181608083E1E9F0E0808182608083D2
:1019B000808181608083E0E9F0E0808181608083C4
:1019C000EAE7F0E0808184608083808182608083A8
:1019D0008081816080838081806880831092C100D3
:1019E000089582508A3080F5E82FF0E0E650F34FFA
:1019F0000C946D120E0D120D040D0A0D240D240D04
:101A0000150D1B0D1F0D250D809180008F77809384
:101A100080000895809180008F7DF9CF84B58F7705
:101A200084BD089584B58F7DFBCF8091B0008F7702
:101A30008093B00008958091B0008F7DF9CF8091A0
:101A400090008F77809390000895809190008F7D13
:101A5000F9CFCF93DF9390E0FC01E455FF4F249141
:101A600084539F4FFC0184918823C9F090E0880F34
:101A7000991FFC01EA50FF4FA591B491FC01E4517C
:101A8000FF4FC591D49161110DC09FB7F8948C910F
:101A9000209582238C938881282328839FBFDF9100
:101AA000CF910895623051F49FB7F8943C91822F02
:101AB000809583238C93E8812E2BEFCF8FB7F894FA
:101AC000EC912E2B2C938FBFEACF1F93CF93DF93F4
:101AD000282F30E0F901E457FF4F8491F901E455D4
:101AE000FF4FD491F901E453FF4FC491CC23A9F0E7
:101AF000162F81110E94F10CEC2FF0E0EE0FFF1F6A
:101B0000E451FF4FA591B4918FB7F894EC91111166
:101B100008C0D095DE23DC938FBFDF91CF911F915A
:101B20000895DE2BF8CFFC01918D228D892F90E056
:101B3000805C9F4F821B91098F7399270895FC0148
:101B4000918D828D981731F0828DE80FF11D858D72
:101B500090E008958FEF9FEF0895FC01918D828DA5
:101B6000981761F0A28DAE0FBF2FB11D5D968C91BD
:101B7000928D9F5F9F73928F90E008958FEF9FEFFC
:101B8000089586E29FE0892B49F080E090E0892B60
:101B900029F00E94260F81110E94000080E090E051
:101BA000892B49F080E090E0892B29F00E94000009
:101BB00081110C9400000895FC01A48DA80FB92F89
:101BC000B11DA35ABF4F2C91848D90E001968F7365
:101BD0009927848FA689B7892C93A089B1898C9184
:101BE00080648C93938D848D981306C00288F3894A
:101BF000E02D80818F7D80830895CF93DF93EC016A
:101C0000888D8823B9F0AA89BB89E889F9898C91E4
:101C100085FD03C0808186FD0DC00FB607FCF7CFA0
:101C20008C9185FFF2CF808185FFEDCFCE010E94A0
:101C3000DC0DE9CFDF91CF910895EF92FF920F93E2
:101C40001F93CF93DF93EC0181E0888F9B8D8C8D68
:101C5000981316C0E889F989808185FF11C0EE8943
:101C6000FF896083E889F98980818064808381E0CD
:101C700090E0DF91CF911F910F91FF90EF90089529
:101C8000F62E0B8D10E00F5F1F4F0F731127E02E04
:101C90008C8D8E110CC00FB607FCFACFE889F9893C
:101CA000808185FFF5CFCE010E94DC0DF1CFEB8D59
:101CB000EC0FFD2FF11DE35AFF4FF0820B8FEA89E5
:101CC000FB8980818062D2CFCF92DF92EF92FF9228
:101CD0001F93CF93DF93EC016A017B01122FE889F8
:101CE000F98982E08083C11481EED806E104F10411
:101CF000A1F060E079E08DE390E0A70196010E94F9
:101D00002C122150310941095109569547953795B3
:101D10002795211580E1380798F0E889F989108224
:101D200060E874E88EE190E0A70196010E942C1211
:101D30002150310941095109569547953795279505
:101D4000EC85FD853083EE85FF852083188EEC8938
:101D5000FD891083EA89FB89808180618083EA891B
:101D6000FB89808188608083EA89FB898081806823
:101D70008083EA89FB8980818F7D8083DF91CF9189
:101D80001F91FF90EF90DF90CF9008951F920F92D8
:101D90000FB60F9211240BB60F922F938F939F9330
:101DA000EF93FF93E0919A02F0919B028081E09182
:101DB000A002F091A10282FD1DC090818091A3023A
:101DC0008F5F8F732091A402821741F0E091A302EC
:101DD000F0E0E657FD4F958F8093A302FF91EF91BE
:101DE0009F918F912F910F900BBE0F900FBE0F9070
:101DF0001F9018958081F2CF1F920F920FB60F920D
:101E000011240BB60F922F933F934F935F936F93D1
:101E10007F938F939F93AF93BF93EF93FF938AE842
:101E200092E00E94DC0DFF91EF91BF91AF919F91E5
:101E30008F917F916F915F914F913F912F910F9073
:101E40000BBE0F900FBE0F901F9018958AE892E07E
:101E50000E94930D21E0892B09F420E0822F089540
:101E6000EAE8F2E01382128288EE93E0A0E0B0E0AC
:101E700084839583A683B78381E891E091838083EF
:101E800085EC90E09587848784EC90E0978786873F
:101E900080EC90E0918B808B81EC90E0938B828B37
:101EA00082EC90E0958B848B86EC90E0978B868B10
:101EB000118E128E138E148E0895AF92BF92CF9210
:101EC000DF92EF92FF920F931F93CF93DF936C01FA
:101ED0007B018B01040F151FEB015E01AE18BF08DB
:101EE000C017D10759F06991D601ED91FC9101908D
:101EF000F081E02DC6010995892B79F7C501DF91A5
:101F0000CF911F910F91FF90EF90DF90CF90BF90F6
:101F1000AF900895FB0101900020E9F73197AF01E0
:101F2000461B570BDC01ED91FC910280F381E02D03
:101F30000994DB0114964D915C9115976D917C91FC
:101F4000DC01ED91FC910280F381E02D09946DE8B4
:101F500071E00C948A0F0F931F93CF93DF93EC01E2
:101F60000E94990F8C01CE010E94A70F800F911F34
:101F7000DF91CF911F910F9108950F931F93CF93EE
:101F8000DF938C01D0E0C0E06115710519F00E946B
:101F90008A0FEC01C8010E94A70F8C0F9D1FDF91D3
:101FA000CF911F910F910895FC01808191810C9434
:101FB0003B13CF93DF93EC0188819981009711F057
:101FC0000E943B13198218821D821C821B821A8276
:101FD000DF91CF9108950F931F93CF93DF93EC017F
:101FE0008B016F5F7F4F888199810E94C413009796
:101FF00051F0998388831B830A8381E0DF91CF911D
:102000001F910F91089580E0F9CFCF93DF93EC01FA
:1020100088819981892B49F08A819B81861797074E
:1020200020F081E0DF91CF910895CE010E94EB0F67
:102030008823C1F38C819D81892B99F7E881F981EF
:102040001082EFCFEF92FF920F931F93CF93DF9306
:10205000EC017B018A01BA010E94051081110BC0BD
:10206000CE010E94D90FCE01DF91CF911F910F9128
:10207000FF90EF9008951D830C83B70188819981AB
:102080000E94AE14F0CFFC011182108213821282E2
:10209000158214826115710551F0FB010190002039
:1020A000E9F73197AF01461B570B0C9422100895A6
:1020B000FB0101900020E9F73197AF01461B570B58
:1020C0000C9422100F931F93CF93DF93CDB7DEB7FD
:1020D00029970FB6F894DEBF0FBECDBF8C01862FB7
:1020E000F80111821082138212821582148250E04C
:1020F000BE016F5F7F4F90E00E941215BE016F5FBF
:102100007F4FC8010E94581029960FB6F894DEBF81
:102110000FBECDBFDF91CF911F910F9108950F9307
:102120001F93CF93DF93CDB7DEB762970FB6F894C6
:10213000DEBF0FBECDBF8C01CB01F8011182108232
:10214000138212821582148250E0BE016F5F7F4FAE
:102150000E94B514BE016F5F7F4FC8010E945810E6
:1021600062960FB6F894DEBF0FBECDBFDF91CF9160
:102170001F910F9108950F931F93CF93DF93CDB7C6
:10218000DEB761970FB6F894DEBF0FBECDBF8C01EE
:10219000CB01F801118210821382128215821482FF
:1021A00050E0BE016F5F7F4F0E941215BE016F5F4E
:1021B0007F4FC8010E94581061960FB6F894DEBF99
:1021C0000FBECDBFDF91CF911F910F9108950F9357
:1021D0001F93CF93DF93CDB7DEB7A2970FB6F894D6
:1021E000DEBF0FBECDBF8C01CB01BA01F801118259
:1021F0001082138212821582148230E0AE014F5F8A
:102200005F4F0E94CB14BE016F5F7F4FC8010E94D9
:102210005810A2960FB6F894DEBF0FBECDBFDF9167
:10222000CF911F910F9108950F931F93CF93DF9339
:10223000CDB7DEB7A1970FB6F894DEBF0FBECDBF06
:102240008C01CB01BA01F801118210821382128233
:102250001582148230E0AE014F5F5F4F0E94E5149B
:10226000BE016F5F7F4FC8010E945810A1960FB644
:10227000F894DEBF0FBECDBFDF91CF911F910F91BC
:102280000895CF93DF93EC01FB018617970749F080
:10229000608171816115710541F0448155810E9411
:1022A0002210CE01DF91CF9108950E94D90FF9CF6E
:1022B000FC011182108213821282158214820C9406
:1022C0004111EF92FF920F931F93CF93DF9361150C
:1022D000710541F480E0DF91CF911F910F91FF9044
:1022E000EF90089541155105B1F07B01EC010C818F
:1022F0001D81040F151FB8010E940510882351F39A
:10230000288139818C819D81B701820F931F0E94A2
:10231000AE141D830C8381E0DECFFB014481558127
:10232000608171810C9461116115710551F0FB019F
:1023300001900020E9F73197AF01461B570B0C9431
:10234000611180E00895CF93DF9300D0CDB7DEB761
:1023500069831A8241E050E0BE016F5F7F4F0E94A7
:1023600061110F900F90DF91CF910895CF93DF937C
:10237000EC01FB0144815581608171810E946111F2
:10238000811103C0CE010E94D90FCE01DF91CF9100
:102390000895CF93DF93EC016115710539F4CE01F7
:1023A0000E94D90FCE01DF91CF910895FB010190DA
:1023B0000020E9F73197AF01461B570B0E946111CE
:1023C000882369F3EFCF08950E94A90C0E94E311BE
:1023D0000E945B03C1ECDDE00E94C5002097E1F3A1
:1023E0000E94C10DF9CF0895DB018F939F930E9446
:1023F0007D12BF91AF91A29F800D911DA39F900D63
:10240000B29F900D11240895AA1BBB1B51E107C078
:10241000AA1FBB1FA617B70710F0A61BB70B881F74
:10242000991F5A95A9F780959095BC01CD01089503
:1024300097FB072E16F4009407D077FD09D00E9471
:10244000041207FC05D03EF4909581959F4F0895A6
:10245000709561957F4F0895A1E21A2EAA1BBB1BB0
:10246000FD010DC0AA1FBB1FEE1FFF1FA217B30760
:10247000E407F50720F0A21BB30BE40BF50B661F76
:10248000771F881F991F1A9469F76095709580953A
:1024900090959B01AC01BD01CF010895052E97FBDE
:1024A0001EF400940E94651257FD07D00E942C1262
:1024B00007FC03D04EF40C9465125095409530956E
:1024C00021953F4F4F4F5F4F0895909580957095A0
:1024D00061957F4F8F4F9F4F0895EE0FFF1F002490
:1024E000001C0BBE0790F691E02D09940E949012FB
:1024F000B7FF0895821B930B08950E949012A59F29
:10250000900DB49F900DA49F800D911D11240895EE
:10251000B7FF0C947D120E947D12821B930B0895CD
:10252000A29FB001B39FC001A39F700D811D112414
:10253000911DB29F700D811D1124911D08950F935F
:102540001F93CF93DF938230910510F482E090E0E7
:10255000E0912903F0912A0330E020E0B0E0A0E010
:10256000309799F42115310509F44AC0281B390B1D
:1025700024303105D8F58A819B816115710589F177
:10258000FB0193838283FE0111C04081518102814E
:10259000138148175907E0F04817590799F4109725
:1025A00061F012960C93129713961C933296CF01FA
:1025B000DF91CF911F910F910895009329031093FC
:1025C0002A03F4CF2115310551F04217530738F093
:1025D000A901DB019A01BD01DF01F801C1CFEF01C3
:1025E000F9CF90932A0380932903CDCFFE01E20F08
:1025F000F31F819391932250310939832883D7CFD8
:102600002091270330912803232B41F420910201CC
:102610003091030130932803209327032091000178
:10262000309101012115310541F42DB73EB740919C
:10263000040150910501241B350BE0912703F09113
:102640002803E217F307A0F42E1B3F0B28173907C6
:1026500078F0AC014E5F5F4F2417350748F04E0FFE
:102660005F1F5093280340932703819391939FCF3B
:10267000F0E0E0E09CCFCF93DF930097E9F0FC011E
:10268000329713821282A0912903B0912A03ED019F
:1026900030E020E01097A1F420813181820F931F58
:1026A00020912703309128032817390709F061C0CA
:1026B000F0932803E0932703DF91CF910895EA0177
:1026C000CE17DF07E8F54A815B819E014115510570
:1026D000B1F7E901FB83EA8349915991C40FD51FF2
:1026E000EC17FD0761F4808191810296840F951F9C
:1026F000E90199838883828193819B838A83F0E0B7
:10270000E0E012968D919C9113970097B9F52D9169
:102710003C911197CD010296820F931F20912703C0
:10272000309128032817390739F6309751F5109260
:102730002A0310922903B0932803A0932703BCCF48
:10274000D383C28340815181840F951FC817D90755
:1027500061F44E5F5F4F88819981480F591F518303
:1027600040838A819B81938382832115310509F0FF
:10277000B0CFF0932A03E09329039ECFFD01DC0143
:10278000C0CF13821282D7CF4F925F926F927F9207
:102790008F929F92AF92BF92CF92DF92EF92FF9271
:1027A0000F931F93CF93DF938C01009799F4CB0184
:1027B000DF91CF911F910F91FF90EF90DF90CF901D
:1027C000BF90AF909F908F907F906F905F904F9051
:1027D0000C949F12FC01E60FF71F9C012250310957
:1027E000E217F30708F4AEC0D901CD91DC9111973F
:1027F000C617D70720F1C530D10578F0CE01049770
:102800008617970750F0C61BD70B2297C193D19319
:102810006D937C93CF010E943B13C801DF91CF9150
:102820001F910F91FF90EF90DF90CF90BF90AF90EE
:102830009F908F907F906F905F904F9008955B0175
:10284000AC1ABD0A4C018C0E9D1EA0912903B091BB
:102850002A03512C412CF12CE12C109731F5809159
:102860002703909128038815990509F05CC0461646
:10287000570608F058C0809100019091010100971F
:1028800041F48DB79EB74091040150910501841B1E
:10289000950BE817F90708F055C0F0932803E0936B
:1028A0002703F90171836083B8CF8D919C911197B3
:1028B00012966C90129713967C901397A815B905F1
:1028C00059F56C0142E0C40ED11CCA14DB0420F19E
:1028D000AC014A195B09DA011296159780F0628201
:1028E000738251834083D9016D937C93E114F10489
:1028F00071F0D7011396FC93EE9312978ECF229628
:102900008C0F9D1FF90191838083F301EFCFF0932A
:102910002A03E093290381CF4816590608F42C01B5
:102920007D01D3019ACFCB010E949F127C010097B9
:1029300049F0AE01B8010E94A514C8010E943B13E2
:1029400087016BCF10E000E068CFFB01DC0102C023
:1029500001900D9241505040D8F70895FB01DC01E1
:1029600001900D920020E1F708954532510520F4C1
:10297000423010F00C94C014FB011082CB0108957A
:10298000BB274A3031F4992322F4BDE2909581951A
:102990009F4F0C941E152532310520F4223010F083
:1029A0000C94D614FA011082CA010895BB272A306C
:1029B00051F4992342F4BDE290958095709561950C
:1029C0007F4F8F4F9F4F0C94F1142532310520F427
:1029D000223010F00C94F014FA011082CA0108950C
:1029E000BB27FA01A62F6217710581059105330BEC
:1029F00030FB66F0AA27660F771F881F991FAA1F52
:102A0000A21710F0A21B63953850A9F7A05DAA3356
:102A100008F0A95DA19336F7B111B1931082CA01F4
:102A20000C9437154532510520F4423010F00C94C7
:102A30001D15FB011082CB010895BB27FB01552713
:102A4000AA27880F991FAA1FA41710F0A41B83950B
:102A50005051B9F7A05DAA3308F0A95DA193009782
:102A600079F7B111B1931192CB010C943715DC01B8
:102A7000FC01672F71917723E1F7329704C07C91B5
:102A80006D9370836291AE17BF07C8F3089510E08D
:102A9000C4E8D0E004C0FE010E946D122196C53842
:082AA000D107C9F7F894FFCF3C
:102AA80000002B038000030201001F1C1F1E1F1EB5
:102AB8001F1F1E1F1E1F00FFFFFFFF000A11181C0B
:102AC80001080DFFFF0700000000070606040407C1
:102AD80000000000333739323736610052320024A3
:102AE80043414E44592C003000234376616B2E2E0F
:102AF8002E0023486D6D6D2E2E2E00244149524420
:102B08004F532C005100000200000000000000009C
:102B18000002093109D808DF08F20801090000009D
:102B2800001D0E5D0F930DAD0D9F0DFD0D0D0A00DF
:00000001FF
